:020000040800F2
:1000000000500020794C0008714A0008774A000827
:100010007D4A0008834A0008894A00080000000061
:10002000000000000000000000000000B192000885
:100030008F4A00080000000091940008D99400083D
:10004000C14C0008C14C0008C14C0008C14C00085C
:10005000C14C0008C14C0008C14C0008C14C00084C
:10006000C14C0008C14C0008C14C0008C14C00083C
:10007000C14C0008C14C0008C14C0008C14C00082C
:10008000C14C0008C14C0008C14C0008C14C00081C
:10009000C14C0008C14C0008C14C0008C14C00080C
:1000A000C14C00089D4A0008C14C0008C14C000822
:1000B000C14C0008C14C0008C14C0008C14C0008EC
:1000C000C14C0008C14C0008C14C0008C14C0008DC
:1000D000C14C0008B14A0008C54A0008D94A0008C6
:1000E000C14C0008C14C0008C14C000800000000D1
:1000F0000000000000000000000000000000000000
:0C01000000000000000000005FF808F1A3
:1001100010B5054C237833B9044B13B10448AFF341
:1001200000800123237010BDF001002000000000BA
:1001300088D1000808B5034B1BB103490348AFF34E
:10014000008008BD00000000F401002088D10008F4
:10015000034613F8012B002AFBD1181A0138704707
:1001600081F0004102E000BF83F0004330B54FEA68
:1001700041044FEA430594EA050F08BF90EA020FD5
:100180001FBF54EA000C55EA020C7FEA645C7FEA68
:10019000655C00F0E2804FEA5454D4EB5555B8BF8B
:1001A0006D420CDD2C4480EA020281EA030382EAFC
:1001B000000083EA010180EA020281EA0303362D8E
:1001C00088BF30BD11F0004F4FEA01314FF4801C61
:1001D0004CEA113102D0404261EB410113F0004F73
:1001E0004FEA03334CEA133302D0524263EB43032A
:1001F00094EA050F00F0A780A4F10104D5F1200EC8
:100200000DDB02FA0EFC22FA05F2801841F1000122
:1002100003FA0EF2801843FA05F359410EE0A5F1F6
:1002200020050EF1200E012A03FA0EFC28BF4CF027
:10023000020C43FA05F3C01851EBE37101F00045DD
:1002400007D54FF0000EDCF1000C7EEB00006EEBEA
:100250000101B1F5801F1BD3B1F5001F0CD3490874
:100260005FEA30004FEA3C0C04F101044FEA4452CB
:1002700012F5800F80F09A80BCF1004F08BF5FEA52
:10028000500C50F1000041EB045141EA050130BD32
:100290005FEA4C0C404141EB0101013C28BFB1F544
:1002A000801FE9D291F0000F04BF01460020B1FA8F
:1002B00081F308BF2033A3F10B03B3F120020CDA62
:1002C0000C3208DD02F1140CC2F10C0201FA0CF040
:1002D00021FA02F10CE002F11402D8BFC2F1200CA5
:1002E00001FA02F120FA0CFCDCBF41EA0C0190405B
:1002F000E41AA2BF01EB0451294330BD6FEA0404A4
:100300001F3C1CDA0C340EDC04F11404C4F120028E
:1003100020FA04F001FA02F340EA030021FA04F3A0
:1003200045EA030130BDC4F10C04C4F1200220FAF7
:1003300002F001FA04F340EA0300294630BD21FA35
:1003400004F0294630BD94F0000F83F4801306BFFB
:1003500081F480110134013D4EE77FEA645C18BFEF
:100360007FEA655C29D094EA050F08BF90EA020F86
:1003700005D054EA000C04BF1946104630BD91EA7E
:10038000030F1EBF0021002030BD5FEA545C05D181
:100390004000494128BF41F0004130BD14F58004C0
:1003A0003CBF01F5801130BD01F0004545F0FE4134
:1003B00041F470014FF0000030BD7FEA645C1ABF69
:1003C000194610467FEA655C1CBF0B46024650EAA0
:1003D000013406BF52EA033591EA030F41F40021CC
:1003E00030BD00BF90F0000F04BF0021704730B552
:1003F0004FF4806404F132044FF000054FF0000127
:1004000050E700BF90F0000F04BF0021704730B5E7
:100410004FF4806404F1320410F0004548BF4042BC
:100420004FF000013EE700BF42004FEAE2014FEA11
:1004300031014FEA02701FBF12F07F4393F07F4FEC
:1004400081F06051704732F07F4208BF704793F0EF
:100450007F4F04BF41F40021704730B54FF4607402
:1004600001F0004521F000411CE700BF50EA010205
:1004700008BF704730B54FF000050AE050EA0102AE
:1004800008BF704730B511F0004502D5404261EB1E
:1004900041014FF4806404F132045FEA915C3FF45F
:1004A000D8AE4FF003025FEADC0C18BF03325FEAFC
:1004B000DC0C18BF033202EBDC02C2F1200300FAAD
:1004C00003FC20FA02F001FA03FE40EA0E0021FAD2
:1004D00002F11444BDE600BF70B54FF0FF0C4CF4C0
:1004E000E06C1CEA11541DBF1CEA135594EA0C0F72
:1004F00095EA0C0F00F0DEF82C4481EA030621EAAD
:100500004C5123EA4C5350EA013518BF52EA0335E7
:1005100041F4801143F4801338D0A0FB02CE4FF099
:100520000005E1FB02E506F00042E0FB03E54FF0C9
:100530000006E1FB03569CF0000F18BF4EF0010EC1
:10054000A4F1FF04B6F5007F64F5407404D25FEABD
:100550004E0E6D4146EB060642EAC62141EA555170
:100560004FEAC52040EA5E504FEACE2EB4F1FD0CB2
:1005700088BFBCF5E06F1ED8BEF1004F08BF5FEA30
:10058000500E50F1000041EB045170BD06F00046E2
:1005900046EA010140EA020081EA0301B4EB5C048F
:1005A000C2BFD4EB0C0541EA045170BD41F4801187
:1005B0004FF0000E013C00F3AB8014F1360FDEBFAC
:1005C000002001F0004170BDC4F10004203C35DA88
:1005D0000C341BDC04F11404C4F1200500FA05F30B
:1005E00020FA04F001FA05F240EA020001F00042AC
:1005F00021F0004110EBD37021FA04F642EB060122
:100600005EEA430E08BF20EAD37070BDC4F10C044B
:10061000C4F1200500FA04F320FA05F001FA04F20F
:1006200040EA020001F0004110EBD37041F10001FB
:100630005EEA430E08BF20EAD37070BDC4F1200506
:1006400000FA05F24EEA020E20FA04F301FA05F26E
:1006500043EA020321FA04F001F0004121FA04F216
:1006600020EA020000EBD3705EEA430E08BF20EAE6
:10067000D37070BD94F0000F0FD101F00046400020
:1006800041EB010111F4801F08BF013CF7D041EAA2
:10069000060195F0000F18BF704703F000465200A6
:1006A00043EB030313F4801F08BF013DF7D043EA77
:1006B0000603704794EA0C0F0CEA135518BF95EA2D
:1006C0000C0F0CD050EA410618BF52EA4306D1D1B4
:1006D00081EA030101F000414FF0000070BD50EAD3
:1006E000410606BF1046194652EA430619D094EA5D
:1006F0000C0F02D150EA013613D195EA0C0F05D147
:1007000052EA03361CBF104619460AD181EA03019A
:1007100001F0004141F0FE4141F470014FF0000052
:1007200070BD41F0FE4141F4780170BD70B54FF0ED
:10073000FF0C4CF4E06C1CEA11541DBF1CEA13556D
:1007400094EA0C0F95EA0C0F00F0A7F8A4EB05044F
:1007500081EA030E52EA03354FEA013100F0888046
:100760004FEA03334FF0805545EA131343EA12630F
:100770004FEA022245EA111545EA10654FEA0026C4
:100780000EF000419D4208BF964244F1FD0404F57D
:10079000407402D25B084FEA3202B61A65EB0305D9
:1007A0005B084FEA32024FF480104FF4002CB6EB96
:1007B000020E75EB030E22BFB61A754640EA0C0016
:1007C0005B084FEA3202B6EB020E75EB030E22BF56
:1007D000B61A754640EA5C005B084FEA3202B6EB97
:1007E000020E75EB030E22BFB61A754640EA9C0056
:1007F0005B084FEA3202B6EB020E75EB030E22BF26
:10080000B61A754640EADC0055EA060E18D04FEAE3
:10081000051545EA16754FEA06164FEAC30343EA83
:1008200052734FEAC2025FEA1C1CC0D111F4801F50
:100830000BD141EA00014FF000004FF0004CB6E749
:1008400011F4801F04BF01430020B4F1FD0C88BFE8
:10085000BCF5E06F3FF6AFAEB5EB030C04BFB6EBF3
:10086000020C5FEA500C50F1000041EB045170BDE6
:100870000EF0004E4EEA113114EB5C04C2BFD4EB13
:100880000C0541EA045170BD41F480114FF0000E97
:10089000013C90E645EA060E8DE60CEA135594EA13
:1008A0000C0F08BF95EA0C0F3FF43BAF94EA0C0F16
:1008B0000AD150EA01347FF434AF95EA0C0F7FF48B
:1008C00025AF104619462CE795EA0C0F06D152EADF
:1008D00003353FF4FDAE1046194622E750EA4106C3
:1008E00018BF52EA43067FF4C5AE50EA41047FF4D4
:1008F0000DAF52EA43057FF4EBAE12E74FF0FF3C39
:1009000006E000BF4FF0010C02E000BF4FF0010C09
:100910004DF804CD4FEA410C7FEA6C5C4FEA430C82
:1009200018BF7FEA6C5C1BD001B050EA410C0CBFD1
:1009300052EA430C91EA030F02BF90EA020F002033
:10094000704710F1000F91EA030F58BF994208BF9A
:1009500090422CBFD8176FEAE37040F00100704757
:100960004FEA410C7FEA6C5C02D150EA013C07D1AE
:100970004FEA430C7FEA6C5CD6D152EA033CD3D0F9
:100980005DF8040B704700BF8446104662468C46F3
:100990001946634600E000BF01B5FFF7B7FF002826
:1009A00048BF10F1000F01BD4DF808EDFFF7F4FF4F
:1009B0000CBF012000205DF808FB00BF4DF808EDDA
:1009C000FFF7EAFF34BF012000205DF808FB00BFFD
:1009D0004DF808EDFFF7E0FF94BF012000205DF81F
:1009E00008FB00BF4DF808EDFFF7CEFF94BF0120D4
:1009F00000205DF808FB00BF4DF808EDFFF7C4FFCD
:100A000034BF012000205DF808FB00BF4FEA410C15
:100A10007FEA6C5C02D150EA013C0AD14FEA430CF8
:100A20007FEA6C5C02D152EA033C02D14FF0000035
:100A300070474FF0010070474FEA410212F5001273
:100A400015D211D56FF47873B3EB625212D94FEA15
:100A5000C12343F0004343EA505311F0004F23FAFF
:100A600002F018BF404270474FF00000704750EA54
:100A7000013005D111F0004008BF6FF00040704711
:100A80004FF00000704700BF4FEA4102B2F1E0436F
:100A900024BFB3F5001CDCF1FE5C0DD901F0004C65
:100AA0004FEAC0024CEA5070B2F1004F40EB8300B5
:100AB00008BF20F00100704711F0804F21D113F1E1
:100AC0003872BCBF01F00040704741F480114FEA1A
:100AD0005252C2F11802C2F1200C10FA0CF320FAA3
:100AE00002F018BF40F001004FEAC1234FEAD323C0
:100AF00003FA0CFC40EA0C0023FA02F34FEA43032A
:100B0000CCE77FEA625307D150EA01331EBF4FF0B2
:100B1000FE4040F44000704701F0004040F0FE40CD
:100B200040F40000704700BF80F0004002E000BFCA
:100B300081F0004142001FBF5FEA410392EA030FC8
:100B40007FEA226C7FEA236C6AD04FEA1262D2EB12
:100B50001363C1BFD218414048404140B8BF5B4217
:100B6000192B88BF704710F0004F40F4000020F0B0
:100B70007F4018BF404211F0004F41F4000121F0C6
:100B80007F4118BF494292EA030F3FD0A2F1010210
:100B900041FA03FC10EB0C00C3F1200301FA03F14E
:100BA00000F0004302D5494260EB4000B0F5000F71
:100BB00013D3B0F1807F06D340084FEA310102F130
:100BC0000102FE2A51D2B1F1004F40EBC25008BFE2
:100BD00020F0010040EA03007047490040EB0000AC
:100BE000013A28BFB0F5000FEDD2B0FA80FCACF1AD
:100BF000080CB2EB0C0200FA0CF0AABF00EBC250DA
:100C000052421843BCBFD0401843704792F0000FC7
:100C100081F4000106BF80F400000132013BB5E71A
:100C20004FEA41037FEA226C18BF7FEA236C21D090
:100C300092EA030F04D092F0000F08BF08467047F5
:100C400090EA010F1CBF0020704712F07F4F04D1C3
:100C5000400028BF40F00040704712F100723CBFD6
:100C600000F50000704700F0004343F0FE4040F400
:100C7000000070477FEA226216BF08467FEA2363BE
:100C80000146420206BF5FEA412390EA010F40F4A9
:100C9000800070474FF0000304E000BF10F00043F5
:100CA00048BF40425FEA000C08BF704743F09643DC
:100CB00001464FF000001CE050EA010208BF7047F7
:100CC0004FF000030AE000BF50EA010208BF70477E
:100CD00011F0004302D5404261EB41015FEA010C93
:100CE00002BF84460146002043F0B64308BFA3F18B
:100CF0008053A3F50003BCFA8CF2083AA3EBC2536D
:100D000010DB01FA02FC634400FA02FCC2F120028B
:100D1000BCF1004F20FA02F243EB020008BF20F0C2
:100D20000100704702F1200201FA02FCC2F1200228
:100D300050EA4C0021FA02F243EB020008BF20EA1D
:100D4000DC7070474FF0FF0C1CEAD0521EBF1CEA4B
:100D5000D15392EA0C0F93EA0C0F6FD01A4480EA39
:100D6000010C400218BF5FEA41211ED04FF0006322
:100D700043EA501043EA5111A0FB01310CF000404E
:100D8000B1F5000F3EBF490041EAD3715B0040EA74
:100D9000010062F17F02FD2A1DD8B3F1004F40EB44
:100DA000C25008BF20F00100704790F0000F0CF017
:100DB000004C08BF49024CEA502040EA51207F3ADB
:100DC000C2BFD2F1FF0340EAC250704740F40000B6
:100DD0004FF00003013A5DDC12F1190FDCBF00F0A7
:100DE00000407047C2F10002410021FA02F1C2F155
:100DF000200200FA02FC5FEA310040F1000053EAF1
:100E00004C0308BF20EADC70704792F0000F00F03E
:100E1000004C02BF400010F4000F013AF9D040EA44
:100E20000C0093F0000F01F0004C02BF490011F4D8
:100E3000000F013BF9D041EA0C018FE70CEAD153D6
:100E400092EA0C0F18BF93EA0C0F0AD030F0004C56
:100E500018BF31F0004CD8D180EA010000F000400A
:100E6000704790F0000F17BF90F0004F084691F0C8
:100E7000000F91F0004F14D092EA0C0F01D1420202
:100E80000FD193EA0C0F03D14B0218BF084608D1CB
:100E900080EA010000F0004040F0FE4040F4000015
:100EA000704740F0FE4040F4400070474FF0FF0CA8
:100EB0001CEAD0521EBF1CEAD15392EA0C0F93EAEF
:100EC0000C0F69D0A2EB030280EA010C49024FEA41
:100ED000402037D04FF0805343EA111143EA1013FA
:100EE0000CF000408B4238BF5B0042F17D024FF4B2
:100EF000000C8B4224BF5B1A40EA0C00B3EB510F8D
:100F000024BFA3EB510340EA5C00B3EB910F24BF75
:100F1000A3EB910340EA9C00B3EBD10F24BFA3EBFA
:100F2000D10340EADC001B0118BF5FEA1C1CE0D1C2
:100F3000FD2A3FF650AF8B4240EBC25008BF20F075
:100F4000010070470CF0004C4CEA50207F32C2BFC9
:100F5000D2F1FF0340EAC250704740F400004FF066
:100F60000003013A37E792F0000F00F0004C02BF97
:100F7000400010F4000F013AF9D040EA0C0093F061
:100F8000000F01F0004C02BF490011F4000F013BBB
:100F9000F9D041EA0C0195E70CEAD15392EA0C0F23
:100FA00008D142027FF47DAF93EA0C0F7FF470AF5B
:100FB000084676E793EA0C0F04D14B023FF44CAF9E
:100FC00008466EE730F0004C18BF31F0004CCAD133
:100FD00030F000427FF45CAF31F000437FF43CAF6F
:100FE0005FE700BF4FF0FF3C06E000BF4FF0010C91
:100FF00002E000BF4FF0010C4DF804CD4FEA400273
:101000004FEA41037FEA226C18BF7FEA236C11D0BC
:1010100001B052EA530C18BF90EA010F58BFB2EB6F
:10102000030088BFC81738BF6FEAE17018BF40F0EF
:10103000010070477FEA226C02D15FEA402C05D1A3
:101040007FEA236CE4D15FEA412CE1D05DF8040B28
:10105000704700BF844608466146FFE70FB5FFF7BB
:10106000C9FF002848BF10F1000F0FBD4DF808ED73
:10107000FFF7F4FF0CBF012000205DF808FB00BF64
:101080004DF808EDFFF7EAFF34BF012000205DF8BE
:1010900008FB00BF4DF808EDFFF7E0FF94BF01200B
:1010A00000205DF808FB00BF4DF808EDFFF7D2FF08
:1010B00094BF012000205DF808FB00BF4DF808ED4B
:1010C000FFF7C8FF34BF012000205DF808FB00BF18
:1010D00042000ED2B2F1FE4F0BD34FF09E03B3EBA2
:1010E000126209D44FEA002343F0004323FA02F0CE
:1010F00070474FF00000704712F1610F01D14202BA
:1011000002D14FF0FF3070474FF00000704700BF32
:1011100080B58AB000AF786039603B6800221A6001
:1011200000237B6258E007F11C03184600F0A0FF83
:1011300007F11403184601F003F807F10C031846F1
:1011400000F038FA0A2003F0EFFD3B681B685A1CD8
:101150003B681A607B681B68B7F91C201A447B68DF
:101160001A607B685B68B7F91E201A447B685A6076
:101170007B689B68B7F920201A447B689A607B687B
:10118000DB68B7F914201A447B68DA607B681B6956
:10119000B7F916201A447B681A617B685B69B7F956
:1011A00018201A447B685A617B689B69B7F90C2048
:1011B0001A447B689A617B68DB69B7F90E201A4490
:1011C0007B68DA617B681B6AB7F910201A447B6878
:1011D0001A627B6A01337B627B6AB3F5FA7FA2DB1A
:1011E0007B681B682D4A82FB03125211DB17D21A4F
:1011F0007B681A607B685B68284A82FB0312521185
:10120000DB17D21A7B685A607B689B68234A82FB93
:1012100003125211DB17D21A7B689A607B68DB6875
:101220001E4A82FB03125211DB17D21A7B68DA6066
:101230007B681B69194A82FB03125211DB17D21A11
:101240007B681A617B685B69144A82FB0312521146
:10125000DB17D21A7B685A617B689B690F4A82FB55
:1012600003125211DB17D21A7B689A617B68DB6923
:101270000A4A82FB03125211DB17D21A7B68DA6129
:101280007B681B6A054A82FB03125211DB17D21AD4
:101290007B681A6200BF2837BD4680BDD34D6210FF
:1012A00080B582B000AF786054227968034808F0B6
:1012B0007DFB00BF0837BD4680BD00BF0C0200208B
:1012C00080B586B002AF03463960FB711346BB712F
:1012D000D023FB73FB793B73FB7B99B207F10C02C4
:1012E0000A2300930123084804F0CCF9FB7B99B250
:1012F000BB799BB2642200923A68034804F0C0FABA
:1013000000BF1037BD4680BD0C02002080B586B0FE
:1013100002AF03460A46FB711346BB71FB793B7370
:10132000BB797B73D023FB73FB7B99B207F10C0273
:10133000642300930223034804F0A4F900BF10378C
:10134000BD4680BD0C02002080B584B000AF78603F
:101350000023FB7380216B20FFF7D8FF642003F08C
:10136000E3FC7B681B7803F00703FB737B681B7946
:101370009B015BB203F040035AB297F90F3013435D
:101380005BB2FB73FB7B19466B20FFF7BFFF64204A
:1013900003F0CAFC0023FB737B68DB7803F00703D0
:1013A000FB73FB7B19461A20FFF7B0FF0023FB738A
:1013B0007B685B78DB00DBB203F01803FB73FB7B1D
:1013C00019461B20FFF7A2FF0023FB737B689B7865
:1013D000DB00DBB203F01803FB73FB7B19461C2018
:1013E000FFF794FF042000F057F87B689B78032BED
:1013F0001AD801A252F823F00914000811140008A9
:1014000019140008211400081A4B1B4A1A600CE03A
:10141000184B1A4A1A6008E0164B194A1A6004E081
:10142000144B184A1A6000E000BF7B685B78032BFE
:101430001AD801A252F823F04914000851140008E8
:1014400059140008611400080F4B104A1A600CE090
:101450000D4B0F4A1A6008E00B4B0E4A1A6004E06D
:10146000094B054A1A6000E000BF00BF1037BD46B7
:1014700080BD00BF6002002000007A3D0000FA3D00
:1014800000007A3E0000FA3E640200200000FA3BB1
:1014900000007A3C0000FA3C80B582B000AF034601
:1014A000FB71FB7919461920FFF730FF00BF0837A1
:1014B000BD4680BD80B588B000AF786007F11C03E1
:1014C0000133012219463A20FFF7FAFE7B7F002BF9
:1014D0004FD007F11403062219463B20FFF7F0FE18
:1014E0003B7D9BB21B029AB27B7D9BB213449BB2A5
:1014F0001AB27B681A80BB7D9BB21B029AB2FB7D3D
:101500009BB213449BB21AB27B685A803B7E9BB25B
:101510001B029AB27B7E9BB213449BB21AB27B68C9
:101520009A8007F10C030C2219464320FFF7C8FEEE
:101530003B7B9BB21B029AB27B7B9BB213449BB258
:101540001AB20E4B1A80BB7B9BB21B029AB2FB7B7A
:101550009BB213449BB21AB2084B5A803B7C9BB29D
:101560001B029AB27B7C9BB213449BB21AB2034B10
:101570009A8000BF2037BD4680BD00BF68020020B2
:1015800080B483B000AF7860094BB3F900207B686A
:101590001A80074BB3F902207B685A80044BB3F9D9
:1015A00004207B689A8000BF0C37BD4680BC704722
:1015B0006802002080B584B000AF786007F10803AE
:1015C000062219464920FFF77BFE3B7A9BB21B029D
:1015D0009AB27B7A9BB213449BB21AB2154B1A8013
:1015E000BB7A9BB21B029AB2FB7A9BB213449BB2AA
:1015F0001AB2104B5A803B7B9BB21B029AB27B7B88
:101600009BB213449BB21AB20A4B9A80094BB3F9AE
:1016100000207B681A80074BB3F902207B685A8050
:10162000044BB3F904207B689A8000BF1037BD4695
:1016300080BD00BF7002002090B585B000AF07F1FB
:10164000080484E80300394681E80C00B7F9083043
:101650001A46BB6AD31A1846FFF720FB03464FF021
:101660008B411846FFF722FC03461A46FB6C1A60B2
:10167000B7F90A301A46FB6AD31A1846FFF70EFB71
:1016800003464FF08B411846FFF710FC03461A46FD
:10169000FB6C5A60B7F90C301A463B6BD31A1846EC
:1016A000FFF7FCFA03464FF08B411846FFF7FEFBAD
:1016B00003461A46FB6C9A60B7F900301A467B6BFA
:1016C000D31A1846FFF7EAFA03461846FEF7ACFEAF
:1016D00049A3D3E90023FFF729F802460B46104639
:1016E000194647A3D3E90023FEF7F6FE02460B4650
:1016F00010461946FFF7C8F90246FB6CDA60B7F9E5
:1017000002301A46BB6BD31A1846FFF7C7FA0346D6
:101710001846FEF789FE38A3D3E90023FFF706F841
:1017200002460B461046194635A3D3E90023FEF7BF
:10173000D3FE02460B4610461946FFF7A5F90246AE
:10174000FB6C1A61B7F904301A46FB6BD31A1846C2
:10175000FFF7A4FA03461846FEF766FE26A3D3E970
:101760000023FEF7E3FF02460B461046194624A36A
:10177000D3E90023FEF7B0FE02460B461046194699
:10178000FFF782F90246FB6C5A61B7F920301A461E
:101790003B6CD31A1846FFF781FA03461A491846DC
:1017A000FFF784FB03461A46FB6C9A61B7F92230B7
:1017B0001A467B6CD31A1846FFF770FA0346124993
:1017C0001846FFF773FB03461A46FB6CDA61B7F95C
:1017D00024301A46BB6CD31A1846FFF75FFA03464B
:1017E00009491846FFF762FB03461A46FB6C1A626A
:1017F00000BF1437BD4690BDFCA9F1D24D62304008
:101800004DC9077746DF913F0000254484B0B0B54D
:101810008AB000AF07F1380484E80F00BB6B4FF0CB
:1018200000011846FFF722FC0346002B12D0FB6B89
:101830004FF000011846FFF719FC0346002B09D0B2
:101840003B6C4FF000011846FFF710FC0346002BDD
:1018500040F09A81BB6BBA6B11461846FFF772FADB
:1018600003461C46FB6BFA6B11461846FFF76AFAF3
:10187000034619462046FFF75DF903461C463B6CBC
:101880003A6C11461846FFF75DFA034619462046A2
:10189000FFF750F903461846FEF7C6FD02460B4611
:1018A000104619460AF036FF02460B461046194606
:1018B000FFF7EAF803467B62BB6B796A1846FFF7CD
:1018C000F5FA0346BB63FB6B796A1846FFF7EEFA3D
:1018D0000346FB633B6C796A1846FFF7E7FA034659
:1018E0003B643B6E5A683B6EDB6819461046FFF757
:1018F00029FA03461C463B6E1A683B6E9B681946E4
:101900001046FFF71FFA034619462046FFF710F965
:1019100003463B623B6E1A683B6E5B681946104695
:10192000FFF710FA03461C463B6E9A683B6EDB6875
:1019300019461046FFF706FA034619462046FFF7F8
:10194000F9F80346FB613B6E1A683B6E1B6819464B
:101950001046FFF7F7F903464FF07C511846FFF7A2
:10196000E7F803461C463B6EDA683B6EDB681946B7
:101970001046FFF7E7F9034619462046FFF7DAF865
:101980000346BB61FB6BB9691846FFF7DBF90346F9
:101990001C463B6CF9691846FFF7D4F90346194613
:1019A0002046FFF7C5F803467B613B6C396A184651
:1019B000FFF7C8F903461C46BB6BB9691846FFF729
:1019C000C1F9034619462046FFF7B2F803463B61CA
:1019D000BB6BF9691846FFF7B5F903461C46FB6B6C
:1019E000396A1846FFF7AEF9034619462046FFF755
:1019F0009FF80346FB60404B1B684FF00001184600
:101A0000FFF75CFB0346002B7ED03B4B1B687969DC
:101A10001846FFF797F903461C46F96D4FF07E50C4
:101A2000FFF744FA034619462046FFF78BF90346B1
:101A30001A46324B1B6819461046FFF77BF80346DF
:101A40001A462E4B1A602C4B1B6839691846FFF753
:101A500079F903461C46F96D4FF07E50FFF726FAE0
:101A6000034619462046FFF76DF903461A46244BF4
:101A70001B6819461046FFF75DF803461A46204BCF
:101A80001A601D4B1B68F9681846FFF75BF903469F
:101A90001C46F96D4FF07E50FFF708FA03461946D1
:101AA0002046FFF74FF903461A46164B1B681946A6
:101AB0001046FFF73FF803461A46124B1A607B6C3C
:101AC0000E4A126811461846FFF734F803467B6445
:101AD000BB6C0B4A126811461846FFF72BF80346F9
:101AE000BB64FB6C074A126811461846FFF722F8E0
:101AF0000346FB6414E000BF0400002078020020CD
:101B00007C020020800200201B4B4FF000021A6074
:101B10001A4B4FF000021A60194B4FF000021A6086
:101B20007C6C184B1B6879691846FFF70BF9034664
:101B300019462046FEF7FEFF03467B64BC6C114B42
:101B40001B6839691846FFF7FDF803461946204619
:101B5000FEF7F0FF0346BB64FC6C0A4B1B68F96898
:101B60001846FFF7EFF8034619462046FEF7E2FF56
:101B70000346FB6408E000BF780200207C020020DE
:101B800080020020000000207C6CF96D4FF07E5038
:101B9000FFF78CF903464FF07C511846FFF7D2F857
:101BA000034619462046FFF7CDF803467B64BC6C1C
:101BB000F96D4FF07E50FFF779F903464FF07C51F5
:101BC0001846FFF7BFF8034619462046FFF7BAF854
:101BD0000346BB64FC6CF96D4FF07E50FFF766F96D
:101BE00003464FF07C511846FFF7ACF80346194600
:101BF0002046FFF7A7F80346FB643B6E1B68BB60FB
:101C00003B6E5B687B603B6E9B683B607B6883F0F0
:101C100000437A6C11461846FFF794F803461C46B9
:101C2000BB6C39681846FFF78DF803461946204605
:101C3000FEF77EFF03461C463B6EDB68FA6C1146DE
:101C40001846FFF77FF8034619462046FEF770FF57
:101C500003461A463B6E1B6819461046FEF76AFF9C
:101C600003461A463B6E1A607B6CB9681846FFF74C
:101C700069F803461C46FB6C39681846FFF762F8A2
:101C8000034619462046FEF755FF03461C463B6EA9
:101C9000DB68BA6C11461846FFF754F8034619463C
:101CA0002046FEF745FF03461A463B6E5B68194621
:101CB0001046FEF73FFF03461A463B6E5A60BB6C68
:101CC000B9681846FFF73EF803461C46FB6C796876
:101CD0001846FFF737F8034619462046FEF728FF57
:101CE00003461C463B6EDB687A6C11461846FFF7CC
:101CF00029F8034619462046FEF71CFF03461A46FC
:101D00003B6E9B6819461046FEF714FF03461A46C1
:101D10003B6E9A603B6EDC68FB6CB9681846FFF757
:101D200011F803461D46BB6C79681846FFF70AF8A0
:101D3000034619462846FEF7FDFE03461D467B6C0A
:101D400039681846FEF7FEFF034619462846FEF797
:101D5000EFFE034619462046FEF7ECFE03461A4600
:101D60003B6EDA603B6E1A683B6E1B681946104684
:101D7000FEF7E8FF03461C463B6E5A683B6E5B6805
:101D800019461046FEF7DEFF034619462046FEF7C9
:101D9000D1FE03461C463B6E9A683B6E9B68194613
:101DA0001046FEF7CFFF034619462046FEF7C2FE57
:101DB00003461C463B6EDA683B6EDB6819461046EC
:101DC000FEF7C0FF034619462046FEF7B3FE034662
:101DD0001846FEF729FB02460B46104619460AF044
:101DE00099FC02460B4610461946FEF74DFE034687
:101DF0007B623B6E1B68796A1846FFF757F803460B
:101E00001A463B6E1A603B6E5B68796A1846FFF7AC
:101E10004DF803461A463B6E5A603B6E9B68796AE2
:101E20001846FFF743F803461A463B6E9A603B6E2E
:101E3000DB68796A1846FFF739F803461A463B6EA5
:101E4000DA6000BF2837BD46BDE8B04004B0704737
:101E50002DE9F04385B000AF3E4686E80F007B6871
:101E6000BA6811461846FEF76DFF03461E463B68EA
:101E7000FA6811461846FEF765FF034619463046D4
:101E8000FEF758FE034619461846FEF753FE034672
:101E90001846FEF7C9FA804689463B683A681146FB
:101EA0001846FEF74FFF03461E467B687A681146C8
:101EB0001846FEF747FF034619463046FEF73AFE3E
:101EC00003461E46BB68BA6811461846FEF73AFF3D
:101ED000034619463046FEF72BFE03461E46FB68B6
:101EE000FA6811461846FEF72DFF0346194630469C
:101EF000FEF71EFE03461846FEF796FA02460B460C
:101F0000404649460AF004FC02460B46144683F05C
:101F1000004555A3D3E9002320462946FEF7DCFA05
:101F200002460B4610461946FEF7AEFD02463B6BD5
:101F30009A607B68FA6811461846FEF703FF03466D
:101F40001C463B68BA6811461846FEF7FBFE03467E
:101F500019462046FEF7ECFD034619461846FEF7E3
:101F6000E9FD03461846FEF75FFA02460B461046A7
:101F700019460AF0A5FB3CA3D3E90023FEF7ACFA0F
:101F800002460B4610461946FEF77EFD02463B6BA5
:101F90005A603B687A6811461846FEF7D3FE03463E
:101FA0001C46BB68FA6811461846FEF7CBFE03468E
:101FB00019462046FEF7BEFD034619461846FEF7B1
:101FC000B9FD03461846FEF72FFA04460D463B6856
:101FD0003A6811461846FEF7B5FE03461E467B6872
:101FE0007A6811461846FEF7ADFE0346194630469C
:101FF000FEF79EFD03461E46BB68BA6811461846AA
:10200000FEF7A0FE034619463046FEF791FD034653
:102010001E46FB68FA6811461846FEF793FE034613
:1020200019463046FEF786FD03461846FEF7FCF9D2
:1020300002460B46204629460AF06AFB0AA3D3E96A
:102040000023FEF749FA02460B4610461946FEF7F2
:102050001BFD02463B6B1A6000BF1437BD46BDE84E
:10206000F08300BFAFF3008072235D1ADCA54C4003
:1020700080B588B000AF786007F11C0301330122FE
:1020800019463A20FFF71CF97B7F002B52D007F14D
:102090001403062219463B20FFF712F93B7D9BB241
:1020A0001B029AB27B7D9BB213449BB21AB27B682F
:1020B0001A80BB7D9BB21B029AB2FB7D9BB213447C
:1020C0009BB21AB27B685A803B7E9BB21B029AB2CB
:1020D0007B7E9BB213449BB2A3F580539BB21AB292
:1020E0007B689A8007F10C03062219464320FFF70C
:1020F000E7F83B7B9BB21B029AB27B7B9BB21344FB
:102100009BB21AB20D4B1A80BB7B9BB21B029AB2D8
:10211000FB7B9BB213449BB21AB2084B5A803B7CA8
:102120009BB21B029AB27B7C9BB213449BB21AB245
:10213000024B9A8000BF2037BD4680BD6802002058
:1021400080B483B000AF7860094BB3F900207B689E
:102150001A80074BB3F902207B685A80044BB3F90D
:1021600004207B689A8000BF0C37BD4680BC704756
:102170006802002000000000B0B584B000AFF86035
:10218000B9607A603B60B9685BA3D3E90023C1E919
:102190001623FB681B68396A1846FEF7C9FC03461C
:1021A0001A46BB685A63FB685B68796A1846FEF793
:1021B000BFFC03461A46BB689A63FB689B68B96A12
:1021C0001846FEF7B5FC03461A46BB68DA63BB68DF
:1021D000DA68BB685B6B19461046FEF7B3FD034631
:1021E0001A46BB681A66BB689A69BB689B6B19463E
:1021F0001046FEF7A7FD03461A46BB68DA66BB68C1
:102200005A6ABB68DB6B19461046FEF79BFD034616
:102210001A46BB689A67BB685B6B39491846FEF77C
:102220004DFF0346002B1BD0BB685B6B354918463E
:10223000FEF726FF0346002B12D0BB685C6EBB681E
:102240001A69BB685B6B19461046FEF77BFD0346B7
:1022500019462046FEF76EFC03461A46BB685A66CE
:10226000BB689B6B26491846FEF728FF0346002BE8
:102270001BD0BB689B6B23491846FEF701FF034642
:10228000002B12D0BB681C6FBB68DA69BB689B6B04
:1022900019461046FEF756FD034619462046FEF73E
:1022A00049FC03461A46BB681A67BB68DB6B1449D6
:1022B0001846FEF703FF0346002B25D0BB68DB6BF7
:1022C00010491846FEF7DCFE0346002B1CD0BB6805
:1022D000DC6FBB689A6ABB68DB6B19461046FEF779
:1022E00031FD034619462046FEF724FC03461A46F4
:1022F000BB68DA6708E000BFFCA9F1D24D62403F3D
:10230000000040C000004040BB685B691846FEF713
:102310008BF804460D46BB685A6BBB685B6C19466C
:102320001046FEF705FC03461846FEF77DF8BB682D
:10233000D3E91623FEF7FAF902460B462046294652
:10234000FEF7CAF802460B4610461946FEF79CFBFC
:102350000246BB689A66BB681B6A1846FEF764F8BB
:1023600004460D46BB689A6BBB689B6C19461046C9
:10237000FEF7DEFB03461846FEF756F8BB68D3E9C6
:102380001623FEF7D3F902460B4620462946FEF7F0
:10239000A3F802460B4610461946FEF775FB0246A7
:1023A000BB685A67BB68DB6A1846FEF73DF804460F
:1023B0000D46BB68DA6BBB68DB6C19461046FEF74E
:1023C000B7FB03461846FEF72FF8BB68D3E9162380
:1023D000FEF7ACF902460B4620462946FEF77CF88C
:1023E00002460B4610461946FEF74EFB0246BB68F6
:1023F000C3F88020BB681A6EBB685B6E1946104636
:10240000FEF798FB03461A46BB689B6E19461046BA
:10241000FEF790FB03461A46BB68C3F89C20BB68D6
:10242000DA6EBB681B6F19461046FEF783FB034646
:102430001A46BB685B6F19461046FEF77BFB0346E6
:102440001A46BB68C3F8A020BB689A6FBB68DB6FF5
:1024500019461046FEF76EFB03461A46BB68D3F8D2
:10246000803019461046FEF765FB03461A46BB68E6
:10247000C3F8A420BB68D3F89C30A8491846FEF7DF
:10248000FFFD0346002B04D0BB684FF00002C3F8E9
:102490009C20BB68D3F89C30A1491846FEF70EFE7D
:1024A0000346002B04D0BB684FF00002C3F89C2009
:1024B000BB68D3F8A03099491846FEF7E1FD034602
:1024C000002B04D0BB684FF00002C3F8A020BB680B
:1024D000D3F8A03092491846FEF7F0FD0346002BD2
:1024E00004D0BB684FF00002C3F8A020BB68D3F84B
:1024F000A4308A491846FEF7C3FD0346002B04D0DA
:10250000BB684FF00002C3F8A420BB68D3F8A43026
:1025100083491846FEF7D2FD0346002B04D0BB6862
:102520004FF00002C3F8A4203868FEF7B7FB02465C
:10253000BB68D3F89C3019461046FEF7F9FA0346FB
:102540001A46BB68D3F8A03019461046FEF7F0FAD9
:1025500003461A46BB68D3F8A43019461046FEF766
:10256000E9FA03461A46BB68C3F8BC203868FEF790
:1025700095FB0246BB68D3F89C3019461046FEF71F
:10258000D9FA03461A46BB68D3F8A030194610465C
:10259000FEF7CEFA03461A46BB68D3F8A4301946B4
:1025A0001046FEF7C5FA03461A46BB68C3F8B020CA
:1025B0003868FEF773FB0246BB68D3F89C301946B7
:1025C0001046FEF7B7FA03461A46BB68D3F8A030A8
:1025D00019461046FEF7AEFA03461A46BB68D3F812
:1025E000A43019461046FEF7A5FA03461A46BB6802
:1025F000C3F8B4203868FEF751FB0246BB68D3F835
:102600009C3019461046FEF793FA03461A46BB68FB
:10261000D3F8A03019461046FEF78CFA03461A4646
:10262000BB68D3F8A43019461046FEF781FA03467A
:102630001A46BB68C3F8B820BB68D3F8B030384935
:102640001846FEF71DFD0346002B03D0BB68344A35
:10265000C3F8B020BB68D3F8B03032491846FEF753
:102660002DFD0346002B03D0BB682E4AC3F8B020D3
:10267000BB68D3F8B8302A491846FEF701FD034677
:10268000002B03D0BB68264AC3F8B820BB68D3F838
:10269000B83024491846FEF711FD0346002B03D03D
:1026A000BB68204AC3F8B820BB68D3F8B4301C49D3
:1026B0001846FEF7E5FC0346002B03D0BB68184A1A
:1026C000C3F8B420BB68D3F8B43016491846FEF7F7
:1026D000F5FC0346002B03D0BB68124AC3F8B420B4
:1026E000BB68D3F8BC300E491846FEF7C9FC034658
:1026F000002B03D0BB680A4AC3F8BC20BB68D3F8E0
:10270000BC3008491846FEF7D9FC0346002B0BD015
:10271000BB68044AC3F8BC2006E000BF00007AC4CE
:1027200000007A440000FA44BB685A6BBB685A64E4
:10273000BB689A6BBB689A64BB68DA6BBB68DA6487
:1027400000BF1037BD46B0BD84B0B0B5A4B008AF6F
:1027500007F1800484E80F00D7F898304FF00001AB
:102760001846FEF783FC0346002B27D0D7F89C3091
:102770004FF000011846FEF779FC0346002B1DD0F0
:10278000D7F8A0304FF000011846FEF76FFC034663
:10279000002B13D0D7F8A8300693D7F8A4300593B0
:1027A0006D4607F190040FCC0FC523682B6007F12D
:1027B00080030FCBFFF72AF800F07CBDD7F88030FC
:1027C0004FF000011846FEF751FC0346002B14D0D1
:1027D000D7F884304FF000011846FEF747FC034657
:1027E000002B0AD0D7F888304FF000011846FEF7CA
:1027F0003DFC0346002B40F0CD83D7F88030D7F85E
:10280000802011461846FEF79DFA03461C46D7F86D
:102810008430D7F8842011461846FEF793FA034611
:1028200019462046FEF786F903461C46D7F888303D
:10283000D7F8882011461846FEF784FA0346194651
:102840002046FEF777F903461846FDF7EDFD0246F0
:102850000B461046194609F05DFF02460B4610462E
:102860001946FEF711F90346FB66D7F88030F96E7A
:102870001846FEF71BFB0346C7F88030D7F88430B4
:10288000F96E1846FEF712FB0346C7F88430D7F8F6
:102890008830F96E1846FEF709FB0346C7F8883002
:1028A000D7F89830D7F8982011461846FEF74AFA1C
:1028B00003461C46D7F89C30D7F89C201146184692
:1028C000FEF740FA034619462046FEF733F9034661
:1028D0001C46D7F8A030D7F8A02011461846FEF7BE
:1028E00031FA034619462046FEF724F903461846F6
:1028F000FDF79AFD02460B461046194609F00AFFFD
:1029000002460B4610461946FEF7BEF80346FB6624
:10291000D7F89830F96E1846FEF7C8FA0346C7F89C
:102920009830D7F89C30F96E1846FEF7BFFA034688
:10293000C7F89C30D7F8A030F96E1846FEF7B6FA03
:102940000346C7F8A030D7F8A8301A68D7F8A830DF
:102950001B6819461046FEF7F5F90346BB66D7F823
:10296000A8301A68D7F8A8305B6819461046FEF7F9
:10297000E9F903467B66D7F8A8301A68D7F8A8307B
:102980009B6819461046FEF7DDF903463B66D7F80B
:10299000A8301A68D7F8A830DB6819461046FEF749
:1029A000D1F90346FB65D7F8A8305A68D7F8A830A4
:1029B0005B6819461046FEF7C5F90346BB65D7F8B4
:1029C000A8305A68D7F8A8309B6819461046FEF719
:1029D000B9F903467B65D7F8A8305A68D7F8A8300C
:1029E000DB6819461046FEF7ADF903463B65D7F89C
:1029F000A8309A68D7F8A8309B6819461046FEF7A9
:102A0000A1F90346FB64D7F8A8309A68D7F8A83034
:102A1000DB6819461046FEF795F90346BB64D7F804
:102A2000A830DA68D7F8A830DB6819461046FEF7F8
:102A300089F903467B64D7F89840F96C4FF07C50D5
:102A4000FEF776F80346796C1846FEF771F80346F0
:102A500019462046FEF776F903461D46D7F89C40F6
:102A6000F96D786DFEF764F8034619462046FEF7C7
:102A700069F9034619462846FEF75CF803461D46E9
:102A8000D7F8A040396E386DFEF754F80346194662
:102A90002046FEF757F9034619462846FEF74AF83E
:102AA000034619461846FEF745F803463B64D7F837
:102AB0009840F96D786DFEF73DF8034619462046BB
:102AC000FEF740F903461D46D7F89C40B96D4FF01C
:102AD0007C50FEF72DF80346796C1846FEF728F86F
:102AE000034619462046FEF72DF9034619462846A7
:102AF000FEF720F803461D46D7F8A040796EB86C63
:102B0000FEF716F8034619462046FEF71BF9034662
:102B100019462846FEF70EF8034619461846FEF7F2
:102B200009F80346FB63396C386CFEF70BF9034672
:102B30001C46F96BF86BFEF705F90346194620466B
:102B4000FDF7F8FF03461846FDF76EFC02460B46FC
:102B50001046194609F0DEFD02460B46104619469E
:102B6000FDF792FF0346BB63D7F89840396E386D86
:102B7000FDF7DEFF034619462046FEF7E3F803465D
:102B80001D46D7F89C40796EB86CFDF7D3FF03461D
:102B900019462046FEF7D6F8034619462846FDF7A3
:102BA000C9FF03461D46D7F8A040B96D4FF07C50D1
:102BB000FDF7BEFF0346F96C1846FDF7B9FF034663
:102BC00019462046FEF7BEF8034619462846FDF78B
:102BD000B1FF034619461846FDF7ACFF03467B6379
:102BE000396E386DFDF7A4FF03463B63B96C786E10
:102BF000FDF7A0FF0346FB624FF07C51B86EFDF776
:102C000097FF03461946786CFDF794FF0346BB62B5
:102C1000F96C4FF07C50FDF78BFF0346796C18463A
:102C2000FDF786FF0346B96B1846FEF78BF803469F
:102C30001C46396E386DFDF77BFF0346796B1846ED
:102C4000FEF780F8034619462046FDF773FF03465A
:102C50007B62F96D786DFDF76BFF0346B96B184623
:102C6000FEF770F803461C46B96C786EFDF762FFFC
:102C70000346796B1846FEF765F803461946204669
:102C8000FDF758FF03463B62396D386EFDF752FF82
:102C90000346B96B1846FEF755F803461C46B96D56
:102CA0004FF07C50FDF744FF0346F96C1846FDF7E2
:102CB0003FFF0346796B1846FEF744F80346194672
:102CC0002046FDF737FF0346FB61D7F88430B96A29
:102CD0001846FEF737F803461C46D7F88830F96ADD
:102CE0001846FEF72FF8034619462046FDF720FF49
:102CF00003461C46D7F89C30F9691846FEF722F8BF
:102D000003461D46D7F8A030396A1846FEF71AF870
:102D1000034619462846FDF70BFF03461946204691
:102D2000FDF708FF0346BB61D7F88830396B1846BA
:102D3000FEF708F803461C46D7F88030B96A1846F3
:102D4000FEF700F8034619462046FDF7F1FE03465C
:102D50001C46D7F8A030796A1846FDF7F3FF034602
:102D60001D46D7F89830F9691846FDF7EBFF034682
:102D700019462846FDF7DCFE034619462046FDF7B6
:102D8000D9FE03467B61D7F88030F96A1846FDF713
:102D9000D9FF03461C46D7F88430396B1846FDF737
:102DA000D1FF034619462046FDF7C2FE03461C46E6
:102DB000D7F89830396A1846FDF7C4FF03461D4618
:102DC000D7F89C30796A1846FDF7BCFF03461946D0
:102DD0002846FDF7ADFE034619462046FDF7AAFE3C
:102DE00003463B61444B1B684FF000011846FEF759
:102DF00065F90346002B00F087803F4B1B68B969DB
:102E00001846FDF79FFF03461C46D7F8A4104FF065
:102E10007E50FEF74BF8034619462046FDF792FF19
:102E200003461A46354B1B6819461046FDF782FECD
:102E300003461A46314B1A602F4B1B6879691846B6
:102E4000FDF780FF03461C46D7F8A4104FF07E50D4
:102E5000FEF72CF8034619462046FDF773FF03469C
:102E60001A46274B1B6819461046FDF763FE0346BA
:102E70001A46234B1A60204B1B6839691846FDF728
:102E800061FF03461C46D7F8A4104FF07E50FEF7B2
:102E90000DF8034619462046FDF754FF03461A462F
:102EA000184B1B6819461046FDF744FE03461A46A8
:102EB000144B1A60D7F88C30104A12681146184625
:102EC000FDF738FE0346C7F88C30D7F890300C4A2F
:102ED000126811461846FDF72DFE0346C7F89030DC
:102EE000D7F89430074A126811461846FDF722FEBB
:102EF0000346C7F8943013E0040000207802002055
:102F00007C020020800200201E4B4FF000021A605D
:102F10001D4B4FF000021A601C4B4FF000021A606C
:102F2000D7F88C401A4B1B68B9691846FDF70AFFA1
:102F3000034619462046FDF7FDFD0346C7F88C30D1
:102F4000D7F89040124B1B6879691846FDF7FAFED6
:102F5000034619462046FDF7EDFD0346C7F89030BD
:102F6000D7F894400A4B1B6839691846FDF7EAFE0A
:102F7000034619462046FDF7DDFD0346C7F89430A9
:102F800008E000BF780200207C02002080020020C0
:102F900000000020D7F88C40D7F8A4104FF07E50E6
:102FA000FDF784FF03464FF07C511846FDF7CAFE3B
:102FB000034619462046FDF7C5FE0346C7F88C3088
:102FC000D7F89040D7F8A4104FF07E50FDF76EFF71
:102FD00003464FF07C511846FDF7B4FE03461946F0
:102FE0002046FDF7AFFE0346C7F89030D7F894406F
:102FF000D7F8A4104FF07E50FDF758FF03464FF06E
:103000007C511846FDF79EFE034619462046FDF703
:1030100099FE0346C7F89430D7F8A8301B68FB60C8
:10302000D7F8A8305B68BB60D7F8A8309B687B6096
:10303000BB6883F00043D7F88C2011461846FDF793
:1030400081FE03461C46D7F8903079681846FDF794
:1030500079FE034619462046FDF76AFD03461C46E5
:10306000D7F8A830DB68D7F8942011461846FDF74A
:1030700069FE034619462046FDF75AFD03461A46E7
:10308000D7F8A8301B6819461046FDF753FD0346D4
:103090001A46D7F8A8301A60D7F88C30F968184665
:1030A000FDF750FE03461C46D7F894307968184661
:1030B000FDF748FE034619462046FDF73BFD034653
:1030C0001C46D7F8A830DB68D7F890201146184680
:1030D000FDF738FE034619462046FDF729FD034655
:1030E0001A46D7F8A8305B6819461046FDF722FD4E
:1030F00003461A46D7F8A8305A60D7F89030F968D6
:103100001846FDF71FFE03461C46D7F89430B968F1
:103110001846FDF717FE034619462046FDF708FD41
:1031200003461C46D7F8A830DB68D7F88C20114638
:103130001846FDF707FE034619462046FDF7FAFC40
:1031400003461A46D7F8A8309B6819461046FDF783
:10315000F1FC03461A46D7F8A8309A60D7F8A83091
:10316000DC68D7F89430F9681846FDF7EBFD0346A4
:103170001D46D7F89030B9681846FDF7E3FD0346C1
:1031800019462846FDF7D6FC03461D46D7F88C3075
:1031900079681846FDF7D6FD034619462846FDF71F
:1031A000C7FC034619462046FDF7C4FC03461A46F1
:1031B000D7F8A830DA60D7F8A8301A68D7F8A8305E
:1031C0001B6819461046FDF7BDFD03461C46D7F89F
:1031D000A8305A68D7F8A8305B6819461046FDF742
:1031E000B1FD034619462046FDF7A4FC03461C46E4
:1031F000D7F8A8309A68D7F8A8309B6819461046C7
:10320000FDF7A0FD034619462046FDF793FC034653
:103210001C46D7F8A830DA68D7F8A830DB6819461A
:103220001046FDF78FFD034619462046FDF782FC48
:1032300003461846FDF7F8F802460B4610461946B5
:1032400009F068FA02460B4610461946FDF71CFCC9
:103250000346FB66D7F8A8301B68F96E1846FDF7E1
:1032600025FE03461A46D7F8A8301A60D7F8A830CA
:103270005B68F96E1846FDF719FE03461A46D7F843
:10328000A8305A60D7F8A8309B68F96E1846FDF749
:103290000DFE03461A46D7F8A8309A60D7F8A83032
:1032A000DB68F96E1846FDF701FE03461A46D7F8AB
:1032B000A830DA607037BD46BDE8B04004B0704752
:1032C00080B485B000AFF860B9607A60FB68064AE8
:1032D0001A60BB68054A1A607B6880221A6000BFCA
:1032E0001437BD4680BC704784020020D8020020FD
:1032F00080B400AF074BDB68064A43F08073D360AD
:10330000054B1B68044A43F00103136000BFBD4630
:1033100080BC7047F0ED00E0001000E080B400AF2A
:10332000064B5A68064B1B680649A1FB03139B0C0E
:10333000B2FBF3F31846BD4680BC7047001000E0B6
:103340000C00002083DE1B4380B582B000AF7860A4
:10335000391DC8230122044804F013FC7B68184679
:103360000837BD4680BD00BFB805002080B582B0DB
:1033700000AF78607B681A68134B1B689A421FD1B4
:10338000124B1B785A2B03D1114B01221A7012E0F9
:103390000F4BDB7F5A1CD1B20D4AD17719460B4B2C
:1033A0001A780B4B0B445A70094BDB7F1E2B02D94A
:1033B000074B0022DA7701220449034804F073FC2A
:1033C00000BF0837BD4680BDFC0500204C0600202C
:1033D00050060020B0B598B000AF01F073FC00F0CB
:1033E00037F900F0BFFA00F079F900F0A5F900F024
:1033F00065FA00F08DFA00F037FA01224FF400511F
:103400007A4801F0C9FF012279497A4804F04BFC5F
:10341000FFF76EFF0021784803F002FD0421764893
:1034200003F0FEFC0821744803F0FAFC0C217248FA
:1034300003F0F6FC7148FDF733FF022387F85A309A
:10344000002387F85830002387F85B30032387F880
:103450005930002387F85C3007F158031846FDF710
:1034600073FF67496748FDF753FE4FF400515F480B
:1034700001F0AAFF4FF4967001F056FC4FF4005192
:103480005A4801F0A1FF4FF4967001F04DFC4FF443
:103490000051564801F098FF4FF4967001F044FC3B
:1034A0004FF40051514801F08FFF4FF4967001F036
:1034B0003BFC4FF400514D4801F086FF4FF49670ED
:1034C00001F032FC4FF40051484801F07DFF4FF409
:1034D000967001F029FCFFF721FF03461A464A4B7C
:1034E0001A604A4B4FF07E521A60484B4FF0000270
:1034F0005A60464B4FF000029A60444B4FF0000276
:10350000DA60434B4FF00002C3F88C20404B4FF081
:103510000002C3F888203E4B4FF00002C3F884201D
:103520003B4B3C4ADA603A4B3B4A1A61384B3B4AC8
:103530005A61374B3A4A9A61354B3A4ADA61344B11
:10354000394A1A62324B394A5A62314B384A9A62C6
:103550002F4B384ADA6201F0DDFB03461846FCF7D0
:1035600041FF02460B462A49C1E9242301224FF4B8
:1035700000511E4801F010FF2F4B07F13C041D467F
:103580000FCD0FC495E8070084E8070007F13C035E
:103590000021184604F0FEFF0346284A1360284B1A
:1035A00007F120041D460FCD0FC495E8070084E8FD
:1035B000070007F120030021184604F0EBFF034643
:1035C000204A1360204B3C1D1D460FCD0FC495E8CB
:1035D000070084E807003B1D0021184604F0DAFFCD
:1035E00003461A4A136004F0CEFFFEE700100140C4
:1035F0004C060020FC0500202C050020D8040020EB
:10360000AC06002088060020B0060020E00600205E
:1036100000070020333323406F12033CEC51383D48
:10362000666666406F12033A9A99993D6666263F30
:10363000BD3786356F12033BC4D100084006002019
:10364000E0D1000844060020FCD100084806002014
:1036500080B590B000AF07F118032822002118466A
:1036600006F0B2F93B1D00221A605A609A60DA60D7
:103670001A610123BB614FF48033FB6100233B627D
:103680000123BB6202237B634FF48033BB634FF49F
:10369000E013FB6307F11803184602F07DFE0346B2
:1036A000002B01D000F09AFF0F237B600223BB6048
:1036B0000023FB604FF480633B6100237B613B1D73
:1036C0000221184603F0EAF80346002B01D000F06F
:1036D00085FF00BF4037BD4680BD000080B500AF0C
:1036E000124B134A1A60114B124A5A600F4B0022B8
:1036F0009A600E4B0022DA600C4B4FF480421A6144
:103700000A4B00225A61094B00229A61074B0022A2
:10371000DA61064B00221A62044801F06FFE03468C
:10372000002B01D000F05AFF00BF80BDD80400205C
:1037300000540040A086010080B58EB000AF07F1B4
:10374000280300221A605A609A60DA6007F12003A9
:1037500000221A605A603B1D00221A605A609A606B
:10376000DA601A615A619A613D4B3E4A1A603C4BDD
:1037700040F29F525A603A4B00229A60384B40F216
:10378000E732DA60364B00221A61354B00229A612B
:10379000334803F04BFA0346002B01D000F01EFF24
:1037A0004FF48053BB6207F1280319462C4803F0FD
:1037B0009FFD0346002B01D000F010FF284803F0C6
:1037C000D7FA0346002B01D000F008FF00233B622C
:1037D00000237B6207F120031946214804F014F905
:1037E0000346002B01D000F0F9FE60237B6000232C
:1037F000BB600023FB6000237B613B1D0022194658
:10380000174803F0B7FC0346002B01D000F0E6FE9A
:103810003B1D04221946124803F0ACFC0346002B62
:1038200001D000F0DBFE3B1D082219460C4803F0D6
:10383000A1FC0346002B01D000F0D0FE3B1D0C2262
:103840001946074803F096FC0346002B01D000F010
:10385000C5FE034800F076FF00BF3837BD4680BD87
:103860002C0500200004004080B500AF114B124A27
:103870001A60104B4FF416525A600E4B00229A6099
:103880000C4B0022DA600B4B00221A61094B0C2210
:103890005A61084B00229A61064B0022DA61054802
:1038A00004F022F90346002B01D000F097FE00BF80
:1038B00080BD00BF740500200038014080B500AF16
:1038C000114B124A1A60104B4FF416525A600E4BAD
:1038D00000229A600C4B0022DA600B4B00221A6126
:1038E000094B0C225A61084B00229A61064B0022B8
:1038F000DA61054804F0F8F80346002B01D000F027
:103900006DFE00BF80BD00BFB80500200044004030
:1039100080B500AF114B124A1A60104B4FF4E132E0
:103920005A600E4B00229A600C4B0022DA600B4B5F
:1039300000221A61094B0C225A61084B00229A613D
:10394000064B0022DA61054804F0CEF80346002B4E
:1039500001D000F043FE00BF80BD00BFFC05002089
:103960000048004080B588B000AF07F11003002286
:103970001A605A609A60DA60244B9B69234A43F0CC
:1039800010039361214B9B6903F01003FB60FB68FC
:103990001E4B9B691D4A43F0200393611B4B9B699F
:1039A00003F02003BB60BB68184B9B69174A43F0C8
:1039B00004039361154B9B6903F004037B607B68F0
:1039C000124B9B69114A43F0080393610F4B9B69AB
:1039D00003F008033B603B6800224FF400510C48A1
:1039E00001F0DAFC4FF400533B6101237B610023BB
:1039F000BB610223FB6107F110031946044801F083
:103A000047FB00BF2037BD4680BD00BF001002400D
:103A100000100140F0B58FB00CAF78604F48FDF753
:103A200049FD4F48FDF7ACFD4D4B3B604B4E4D4BB8
:103A30000B934D4B02AC1D460FCD0FC40FCD0FC4E1
:103A40002B682360494A6B4692E8030018600433F0
:103A500019803B680CCB96E80300FDF7EDFDFFF7FE
:103A60005DFC0346424A1360414B1A68414B1B6898
:103A70009A4204D2404B1B68404A136010E03C4B12
:103A80001A683C4B1B68D31A1846FDF703F9034626
:103A900019463B48FDF70AFA03461A46374B1A60A7
:103AA000334B1B68334A1360344B1B68324A136034
:103AB000324B1B682B4E334A069205936D4606F136
:103AC00010040FCC0FC523682B6096E80F00FEF79B
:103AD0003BFE2C4B2C4A00920FCBFEF7B9F92B4B37
:103AE0001B8818462A4B1B682A4A12682A4909680B
:103AF0000291019200930346012228492248FEF7D1
:103B00003BFB264BD3F8BC3025491846FDF7CEF9D0
:103B100003461A46234B1A60204BD3F8B030204995
:103B20001846FDF7C3F903461A461F4B1A601B4B94
:103B3000D3F8B4301A491846FDF7B8F903461A46C7
:103B40001A4B1A60154BD3F8B83015491846FDF7D3
:103B5000ADF903461A46164B1A605FE7700600205F
:103B600078060020BC060020880600208006002081
:103B7000B8060020B4060020C8070020FC0600207C
:103B800000247449E0060020F00600200800002010
:103B9000DC070020E0070020E407002000070020E9
:103BA0000000A041CC070020D0070020D40700204F
:103BB000D807002080B586B000AF7860104B1B6836
:103BC0001846FCF731FC07F11003042205F0A0FEB3
:103BD0000B4B5B681846FCF727FC07F1080304222F
:103BE00005F096FE074B1B8807F1080207F110014C
:103BF000054806F051FB4FF47A7004F017FDDDE73D
:103C0000F00600200800002018D200080000000084
:103C1000B0B584B000AF7860A94B1B78012B40F0A1
:103C2000D5834FF40051A74801F0CEFBA44B5B783D
:103C3000522B40F04B81A24B9B784F2B40F046819A
:103C40009F4BDB784C2B40F041819D4BDB79184634
:103C500000F0C9FC024613469B0013445B001C465F
:103C6000974B1B7A184600F0BEFC034623441846C7
:103C7000FCF7C8FB04460D46914B9B7A184600F0B2
:103C8000B2FC03461846FCF7BDFB87A3D3E900232B
:103C9000FCF722FC02460B4620462946FCF766FA52
:103CA00002460B4614461D46854BDB7A184600F04B
:103CB0009AFC03461846FCF7A5FB7DA3D3E9002335
:103CC000FCF70AFC02460B4620462946FCF74EFA52
:103CD00002460B4614461D46794B1B7B184600F0E6
:103CE00082FC03461846FCF78DFB73A3D3E900233F
:103CF000FCF7F2FB02460B4620462946FCF736FA53
:103D000002460B4610461946FCF7BEFE03466E4AB5
:103D1000D3606B4B1B7C184600F065FC02461346D3
:103D20009B0013445B001C46654B5B7C184600F00F
:103D30005AFC034623441846FCF764FB04460D4630
:103D40005F4BDB7C184600F04EFC03461846FCF740
:103D500059FB55A3D3E90023FCF7BEFB02460B46F3
:103D600020462946FCF702FA02460B4614461D4639
:103D7000534B1B7D184600F036FC03461846FCF7F3
:103D800041FB4BA3D3E90023FCF7A6FB02460B46FD
:103D900020462946FCF7EAF902460B4614461D4622
:103DA000474B5B7D184600F01EFC03461846FCF7A7
:103DB00029FB41A3D3E90023FCF78EFB02460B4607
:103DC00020462946FCF7D2F902460B461046194612
:103DD000FCF75AFE03463C4A1361394B5B7E18469A
:103DE00000F001FC024613469B0013445B001C4696
:103DF000334B9B7E184600F0F6FB034623441846DF
:103E0000FCF700FB04460D462D4B1B7F184600F0C7
:103E1000EAFB03461846FCF7F5FA23A3D3E900238F
:103E2000FCF75AFB02460B4620462946FCF79EF952
:103E300002460B4614461D46214B5B7F184600F098
:103E4000D2FB03461846FCF7DDFA19A3D3E9002399
:103E5000FCF742FB02460B4620462946FCF786F952
:103E600002460B4614461D46154B9B7F184600F034
:103E7000BAFB03461846FCF7C5FA0FA3D3E90023A3
:103E8000FCF72AFB02460B4620462946FCF76EF952
:103E900002460B4610461946FCF7F6FD03460A4A51
:103EA000536188E2AFF300809A9999999999B93F43
:103EB0007B14AE47E17A843FFCA9F1D24D62503FBA
:103EC000500600200010014000070020CA4B5B781C
:103ED000502B40F03781C84B9B78492B40F0328102
:103EE000C54BDB78542B40F02D81C34BDB79184652
:103EF00000F079FB024613469B0013445B001C460E
:103F0000BD4B1B7A184600F06EFB0346234418464F
:103F1000FCF778FA04460D46B74B9B7A184600F03A
:103F200062FB03461846FCF76DFAADA3D3E9002304
:103F3000FCF7D2FA02460B4620462946FCF716F952
:103F400002460B4614461D46AB4BDB7A184600F082
:103F50004AFB03461846FCF755FAA3A3D3E900230E
:103F6000FCF7BAFA02460B4620462946FCF7FEF853
:103F700002460B4614461D469F4B1B7B184600F01D
:103F800032FB03461846FCF73DFA99A3D3E9002318
:103F9000FCF7A2FA02460B4620462946FCF7E6F853
:103FA00002460B4610461946FCF76EFD0346934A3F
:103FB0009361914B1B7C184600F015FB024613469B
:103FC0009B0013445B001C468B4B5B7C184600F047
:103FD0000AFB034623441846FCF714FA04460D4630
:103FE000854BDB7C184600F0FEFA03461846FCF7CA
:103FF00009FA7BA3D3E90023FCF76EFA02460B46CD
:1040000020462946FCF7B2F802460B4614461D46E8
:10401000794B1B7D184600F0E6FA03461846FCF77C
:10402000F1F971A3D3E90023FCF756FA02460B46D7
:1040300020462946FCF79AF802460B4614461D46D0
:104040006D4B5B7D184600F0CEFA03461846FCF730
:10405000D9F967A3D3E90023FCF73EFA02460B46E1
:1040600020462946FCF782F802460B4610461946C0
:10407000FCF70AFD0346614AD3615F4B5B7E18463D
:1040800000F0B1FA024613469B0013445B001C4645
:10409000594B9B7E184600F0A6FA03462344184667
:1040A000FCF7B0F904460D46534B1B7F184600F051
:1040B0009AFA03461846FCF7A5F949A3D3E9002369
:1040C000FCF70AFA02460B4620462946FCF74EF852
:1040D00002460B4614461D46474B5B7F184600F0D0
:1040E00082FA03461846FCF78DF93FA3D3E9002373
:1040F000FCF7F2F902460B4620462946FCF736F853
:1041000002460B4614461D463B4B9B7F184600F06B
:104110006AFA03461846FCF775F935A3D3E900237C
:10412000FCF7DAF902460B4620462946FCF71EF852
:1041300002460B4610461946FCF7A6FC03462F4ADA
:10414000136238E12C4B5B78432B5FD12A4B9B7871
:10415000432B5BD1284BDB78522B57D1264B5B7915
:10416000184600F040FA03469BB21A465201D21A92
:1041700092001344DB009CB21F4B9B79184600F061
:1041800032FA03469BB21A46920013441A46910033
:104190001A460B4613449B009BB223449CB2164B19
:1041A000DB79184600F01FFA03469BB21A469200CC
:1041B00013445B009BB223449CB20F4B1B7A1846FE
:1041C00000F011FA03469BB223449AB20C4B1A80BA
:1041D0000C4B00221A700C4B01221A70EBE000BF4E
:1041E0009A9999999999B93F7B14AE47E17A843F9E
:1041F000FCA9F1D24D62503F50060020000700207C
:1042000008000020F1070020F00700207A4B5B78BF
:10421000492B12D1784B9B78432B0ED1764BDB7810
:10422000432B0AD1744B1B79522B06D1734B1B883D
:1042300002339AB2714B1A80BDE06F4B5B78442B0E
:1042400012D16D4B9B78432B0ED16B4BDB78432BFC
:104250000AD1694B1B79522B06D1684B1B88053B51
:104260009AB2664B1A80A6E0634B5B78492B0FD15C
:10427000614B9B784E2B0BD15F4BDB78492B07D1E1
:104280005D4B1B79542B03D15D4B01221A7092E0D8
:10429000594B5B78532B0FD1574B9B78542B0BD139
:1042A000554BDB784F2B07D1534B1B79502B03D148
:1042B000544B01221A707EE04F4B5B784C2B13D18C
:1042C0004D4B9B78452B0FD14B4BDB78462B0BD1BD
:1042D000494B1B79542B07D14B4B4FF041421A608D
:1042E0004A4B4B4A1A6066E0434B5B78522B17D11E
:1042F000414B9B78492B13D13F4BDB78472B0FD198
:104300003D4B1B79482B0BD13B4B5B79542B07D191
:104310003D4B4FF082421A603C4B3D4A1A604AE0E6
:10432000354B5B78462B1FD1334B9B784F2B1BD1E2
:10433000314BDB78522B17D12F4B1B79572B13D1D5
:104340002D4B5B79412B0FD12B4B9B79522B0BD1F2
:10435000294BDB79442B07D12E4B4FF041421A6099
:104360002D4B2B4A1A6026E0234B5B78422B22D13F
:10437000214B9B78412B1ED11F4BDB78432B1AD14D
:104380001D4B1B794B2B16D11B4B5B79572B12D135
:10439000194B9B79412B0ED1174BDB79522B0AD14C
:1043A000154B1B7A442B06D11A4B4FF082421A60F0
:1043B000194B174A1A601E220021184805F004FB09
:1043C0000D4B0022DA770C4B00221A700F4B1B6842
:1043D0004FF000011846FCF771FE0346002B1FD07A
:1043E0000A4B1B684FF07E511846FCF7A1FB0346B1
:1043F0001A46064B1A6021E05006002008000020F3
:10440000F2070020F1070020DC070020E807002069
:104410000050C347E0070020EC07002051060020B1
:10442000594B1B684FF000011846FCF71FFE03466E
:10443000002B03D0554B4FF000021A60544B1B6801
:104440004FF000011846FCF739FE0346002B0BD055
:104450004F4B1B684FF07E511846FCF769FB034633
:104460001A464B4B1A600DE0494B1B684FF0000198
:104470001846FCF7FBFD0346002B03D0454B4FF0DD
:1044800000021A60444B1B78012B3AD13223FB60A7
:1044900015E0424B1B68FA689A63404B1B68FA6848
:1044A000DA633E4B1B68FA685A633C4B1B68FA6838
:1044B0001A64C82000F038FCFB680133FB60FB681D
:1044C0003C2BE6DD3C23BB6015E0344B1B68BA682F
:1044D0009A63324B1B68BA68DA63304B1B68BA6860
:1044E0005A632E4B1B68BA681A64C82000F01CFC83
:1044F000BB68013BBB60BB68312BE6DC264B00226E
:104500001A70274B1B78012B12D1244B1B683222C7
:104510009A63224B1B683222DA63204B1B683222DB
:104520005A631E4B1B6832221A641E4B00221A70FB
:104530001C4B1B78012B7FF46FAB1B4B1B68174A7E
:1045400014681846FCF7C4FD0346A363174B1B68A9
:10455000124A14681846FCF7BBFD0346E363144B8C
:104560001B680E4A14681846FCF7B2FD03466363E5
:10457000104B1B68094A14681846FCF7A9FD03464E
:104580002364FFF749BB00BFE8070020DC070020D9
:10459000EC070020E0070020F20700202C05002097
:1045A000F1070020F0070020D0070020D4070020EA
:1045B000CC070020D807002080B582B000AF78601B
:1045C0007B681B68044A934201D100F091FB00BF55
:1045D0000837BD4680BD00BF002C014080B400AF4D
:1045E00072B600BFFEE780B485B000AF0346FB7132
:1045F0003023FB6009E0FB79FA689A4202D1FB683C
:10460000303B06E0FB680133FB60FB68392BF2DDD1
:10461000002318461437BD4680BC704780B584B06F
:1046200000AF184B9B69174A43F001039361154B88
:104630009B6903F00103BB60BB68124BDB69114A45
:1046400043F08053D3610F4BDB6903F080537B60F1
:104650007B6800220F216FF0010000F03EFC0A4B46
:104660005B68FB60FB6823F0E063FB60FB6843F082
:104670000073FB60044AFB68536000BF1037BD46FF
:1046800080BD00BF001002400000014080B588B02E
:1046900000AF786007F1100300221A605A609A6038
:1046A000DA607B681B68154A934223D1144B9B69DF
:1046B000134A43F008039361114B9B6903F008030D
:1046C000FB60FB68C0233B6112237B610323FB611A
:1046D00007F1100319460B4800F0DAFC084BDB69C0
:1046E000074A43F40013D361054BDB6903F400135D
:1046F000BB60BB6800BF2037BD4680BD0054004092
:1047000000100240000C014080B485B000AF78601A
:104710007B681B68094A93420BD1094BDB69084A45
:1047200043F00203D361064BDB6903F00203FB6035
:10473000FB6800BF1437BD4680BC704700040040D2
:104740000010024080B588B000AF786007F1100318
:1047500000221A605A609A60DA607B681B681B4A04
:1047600093422FD11A4B9B69194A43F0040393617A
:10477000174B9B6903F00403FB60FB68144B9B69B8
:10478000134A43F008039361114B9B6903F008033C
:10479000BB60BB68C0233B6102237B610223FB61DA
:1047A00007F1100319460B4800F072FC03233B612C
:1047B00002237B610223FB6107F1100319460648BF
:1047C00000F066FC00BF2037BD4680BD00040040FD
:1047D0000010024000080140000C014080B58CB080
:1047E00000AF786007F1200300221A605A609A60D7
:1047F000DA607B681B685F4A93423AD15E4B9B69E3
:104800005D4A43F4804393615B4B9B6903F48043AF
:10481000FB61FB69584B9B69574A43F00403936162
:10482000554B9B6903F00403BB61BB694FF40073F4
:104830003B6202237B620323FB6207F120031946DC
:104840004E4800F025FC4FF480633B6200237B62FE
:104850000023BB6207F120031946484800F018FC0A
:1048600000220521252000F038FB252000F051FB17
:104870007CE07B681B68424A934238D13E4BDB693F
:104880003D4A43F40033D3613B4BDB6903F400330F
:104890007B617B69384B9B69374A43F00403936122
:1048A000354B9B6903F004033B613B6904233B6286
:1048B00002237B620323FB6207F1200319462F4882
:1048C00000F0E6FB08233B6200237B620023BB620F
:1048D00007F120031946294800F0DAFB00220521E0
:1048E000262000F0FAFA262000F013FB3EE07B6859
:1048F0001B68244A934239D11F4BDB691E4A43F49B
:104900008023D3611C4BDB6903F48023FB60FB68CD
:10491000194B9B69184A43F008039361164B9B6936
:1049200003F00803BB60BB684FF480633B62022363
:104930007B620323FB6207F120031946124800F053
:10494000A7FB4FF400633B6200237B620023BB6242
:1049500007F1200319460C4800F09AFB00220521BC
:10496000272000F0BAFA272000F0D3FA00BF303732
:10497000BD4680BD003801400010024000080140E3
:104980000044004000480040000C014080B58CB05D
:1049900000AF78600023BB6200237B62002387F8AE
:1049A0002F302E4B9B692D4A43F4006393612B4BB0
:1049B0009B6903F40063BB60BB6807F10C0207F15D
:1049C00010031146184602F0E3F802F0CDF8B86281
:1049D000BB6A234AA2FB03239B0C013B7B62214B56
:1049E000214A1A601F4B40F2E732DA601D4A7B6AA7
:1049F00053601C4B00221A611A4B00229A60194B1B
:104A000000229A61174802F011F9034687F82F3007
:104A100097F82F30002B1BD1124802F057F90346AC
:104A200087F82F3097F82F30002B11D1192000F084
:104A300070FA7B680F2B08D800227968192000F0E3
:104A40004CFA0A4A7B68136002E0012387F82F3092
:104A500097F82F3018463037BD4680BD0010024011
:104A600083DE1B43F4070020002C014010000020CF
:104A700080B400AFFEE780B400AFFEE780B400AFC3
:104A8000FEE780B400AFFEE780B400AFFEE780B47D
:104A900000AF00BFBD4680BC7047000080B500AFCE
:104AA000024802F05FFA00BF80BD00BFF40700209B
:104AB00080B500AF024803F027F900BF80BD00BFFA
:104AC0007405002080B500AF024803F01DF900BF57
:104AD00080BD00BFB805002080B500AF024803F0DC
:104AE00013F900BF80BD00BFFC05002080B400AFFB
:104AF00001231846BD4680BC704780B582B000AF28
:104B00007860396004F028FF034616221A604FF0DF
:104B1000FF3318460837BD4680BD80B582B000AF70
:104B200078604FF0FF317868FFF7E7FFFEE780B568
:104B300086B000AFF860B9607A6000237B610AE05C
:104B4000AFF300800146BB685A1CBA60CAB21A7043
:104B50007B6901337B617A697B689A42F0DB7B6811
:104B600018461837BD4680BD80B586B000AFF860E6
:104B7000B9607A6000237B6109E0BB685A1CBA60A7
:104B80001B781846FEF7E0FB7B6901337B617A698D
:104B90007B689A42F1DB7B6818461837BD4680BDBA
:104BA00080B483B000AF78604FF0FF3318460C3705
:104BB000BD4680BC704780B483B000AF7860396078
:104BC0003B684FF400525A60002318460C37BD462C
:104BD00080BC704780B483B000AF78600123184672
:104BE0000C37BD4680BC704780B485B000AFF8601C
:104BF000B9607A60002318461437BD4680BC704700
:104C000080B586B000AF7860144A154BD31A7B612B
:104C10007B693B61134B1B68002B02D1114B124A7D
:104C20001A60104B1A687B6813443A699A4207D29B
:104C300004F092FE03460C221A604FF0FF3309E0A5
:104C4000084B1B68FB60074B1A687B681344054AD6
:104C50001360FB6818461837BD4680BD0050002021
:104C6000000400003C080020A015002080B400AF24
:104C700000BFBD4680BC70470C480D490D4A00235B
:104C800002E0D458C4500433C4188C42F9D30A4A01
:104C90000A4C002301E013600432A242FBD3FFF769
:104CA000E5FF04F05FFEFEF795FB70470000002073
:104CB000EC010020A8D60008F0010020A01500207B
:104CC000FEE7000080B500AF084B1B68074A43F0C1
:104CD00010031360032000F0F5F80F20FFF756FED5
:104CE000FFF79CFC0023184680BD00BF0020024057
:104CF00080B400AF054B1B781A46054B1B68134464
:104D0000034A136000BFBD4680BC704714000020FA
:104D10004008002080B400AF024B1B681846BD4617
:104D200080BC70474008002080B584B000AF786038
:104D3000FFF7F0FFB8607B68FB60FB68B3F1FF3FF3
:104D400005D00A4B1B781A46FB681344FB6000BF72
:104D5000FFF7E0FF0246BB68D31AFA689A42F7D819
:104D600000BF00BF1037BD4680BD00BF140000204B
:104D700080B485B000AF78607B6803F00703FB6008
:104D80000C4BDB68BB60BA684FF6FF031340BB6097
:104D9000FB681A02BB68134343F0BF6343F400335C
:104DA000BB60044ABB68D36000BF1437BD4680BCFB
:104DB000704700BF00ED00E080B400AF044BDB683B
:104DC0001B0A03F007031846BD4680BC704700BFAE
:104DD00000ED00E080B483B000AF0346FB7197F9AB
:104DE0000730002B0BDBFB7903F01F02064997F914
:104DF00007305B09012000FA02F241F8232000BFCE
:104E00000C37BD4680BC704700E100E080B483B041
:104E100000AF03463960FB7197F90730002B0ADBBE
:104E20003B68DAB20C4997F907301201D2B20B4451
:104E300083F800230AE03B68DAB20849FB7903F003
:104E40000F03043B1201D2B20B441A7600BF0C3799
:104E5000BD4680BC704700BF00E100E000ED00E00F
:104E600080B489B000AFF860B9607A60FB6803F085
:104E70000703FB61FB69C3F10703042B28BF04236D
:104E8000BB61FB690433062B02D9FB69033B00E0DD
:104E900000237B614FF0FF32BB6902FA03F3DA4370
:104EA000BB681A407B699A404FF0FF317B6901FA79
:104EB00003F3D9437B680B40134318462437BD46A0
:104EC00080BC704780B582B000AF78607868FFF72B
:104ED0004FFF00BF0837BD4680BD80B586B000AF2C
:104EE0000346B9607A60FB7300237B61FFF764FFC0
:104EF00078617A68B9687869FFF7B2FF024697F976
:104F00000F3011461846FFF781FF00BF1837BD4626
:104F100080BD80B582B000AF0346FB7197F90730C2
:104F20001846FFF757FF00BF0837BD4680BD80B465
:104F300085B000AF78600023FB737B6893F8213065
:104F4000022B08D07B6804229A637B68002283F8D6
:104F50002020012320E07B681B681A687B681B689F
:104F600022F00E021A607B681B681A687B681B6857
:104F700022F001021A607B681A6C7B68DB6B0121EE
:104F800001FA02F25A607B68012283F821207B68D3
:104F9000002283F82020FB7B18461437BD4680BCD6
:104FA0007047000080B584B000AF78600023FB73C9
:104FB0007B6893F82130022B05D07B6804229A632A
:104FC0000123FB7351E07B681B681A687B681B68D0
:104FD00022F00E021A607B681B681A687B681B68E7
:104FE00022F001021A607B681B68224A934229D092
:104FF0007B681B68204A934222D07B681B681F4A4B
:1050000093421AD07B681B681D4A934212D07B687A
:105010001B681C4A93420AD07B681B681A4A934259
:1050200002D14FF480130EE04FF080730BE04FF489
:10503000803308E04FF4805305E04FF4807302E0C2
:10504000102300E00123114A53607B68012283F89A
:1050500021207B68002283F820207B685B6B002B7B
:1050600003D07B685B6B78689847FB7B18461037EA
:10507000BD4680BD080002401C00024030000240D6
:1050800044000240580002406C0002400000024010
:1050900080B48BB000AF7860396000237B6200235E
:1050A0003B6269E101227B6A02FA03F3FB613B6820
:1050B0001B68FA691340BB61BA69FB699A4240F008
:1050C00058813B685B689A4A93425ED0984A934203
:1050D00075D8984A934258D0964A93426FD8964AC8
:1050E000934252D0944A934269D8944A93424CD006
:1050F000924A934263D8924A934246D0904A93424E
:105100005DD8122B2AD8122B59D801A252F823F0BD
:105110008B5100086551000877510008B95100080B
:10512000BF510008BF510008BF510008BF5100081F
:10513000BF510008BF510008BF510008BF5100080F
:10514000BF510008BF510008BF510008BF510008FF
:10515000BF5100086D51000881510008794A9342FF
:1051600013D02CE03B68DB683B6229E03B68DB68DE
:1051700004333B6224E03B68DB6808333B621FE09A
:105180003B68DB680C333B621AE03B689B68002B92
:1051900002D104233B6213E03B689B68012B05D1DD
:1051A00008233B627B68FA691A6109E008233B62C5
:1051B0007B68FA695A6103E000233B6200E000BFAC
:1051C000BB69FF2B01D87B6801E07B6804337B61FE
:1051D000BB69FF2B02D87B6A9B0002E07B6A083B1D
:1051E0009B003B617B691A680F213B6901FA03F35D
:1051F000DB431A40396A3B6901FA03F31A437B69BE
:105200001A603B685B6803F08053002B00F0B180AC
:105210004D4B9B694C4A43F0010393614A4B9B6998
:1052200003F00103BB60BB68484A7B6A9B080233FA
:1052300052F82330FB607B6A03F003039B000F22CC
:1052400002FA03F3DB43FA681340FB607B68404AD1
:10525000934213D07B683F4A93420DD07B683E4A0D
:10526000934207D07B683D4A934201D1032306E075
:10527000042304E0022302E0012300E000237A6A11
:1052800002F0030292009340FA681343FB602F4937
:105290007B6A9B080233FA6841F823203B685B680D
:1052A00003F48033002B06D02D4B1A682C49BB69C0
:1052B00013430B6006E02A4B1A68BB69DB4328499D
:1052C00013400B603B685B6803F40033002B06D08F
:1052D000234B5A682249BB6913434B6006E0204BBD
:1052E0005A68BB69DB431E4913404B603B685B68EF
:1052F00003F48013002B06D0194B9A681849BB6938
:1053000013438B6006E0164B9A68BB69DB43144974
:1053100013408B603B685B6803F40013002B21D0C3
:105320000F4BDA680E49BB691343CB6021E000BF25
:105330000000321000003110000022100000211087
:105340000000121000001110001002400000014087
:1053500000080140000C0140001001400014014011
:10536000000401400B4BDA68BB69DB430949134079
:10537000CB607B6A01337B623B681A687B6A22FAE6
:1053800003F3002B7FF48EAE00BF00BF2C37BD4669
:1053900080BC70470004014080B483B000AF7860E7
:1053A0000B467B8013467B707B78002B03D07A887A
:1053B0007B681A6103E07B881A047B681A6100BF6E
:1053C0000C37BD4680BC704780B485B000AF7860B4
:1053D0000B467B807B68DB68FB607A88FB68134048
:1053E0001A04FB68D9437B880B401A437B681A6117
:1053F00000BF1437BD4680BC7047000080B584B044
:1054000000AF78607B68002B01D101232BE17B6822
:1054100093F83D30DBB2002B06D17B68002283F885
:105420003C207868FFF732F97B68242283F83D201E
:105430007B681B681A687B681B6822F001021A608F
:105440007B681B681A687B681B6842F400421A601C
:105450007B681B681A687B681B6822F400421A602C
:1054600001F06EFBF8607B685B68814A934207D865
:10547000FB68804A934294BF01230023DBB206E01D
:10548000FB687D4A934294BF01230023DBB2002BCB
:1054900001D00123E7E0FB68784AA2FB03239B0CC1
:1054A000BB607B681B685B6823F03F017B681B68FF
:1054B000BA680A435A607B681B681B6A23F03F0185
:1054C0007B685B686A4A934202D8BB68013309E093
:1054D000BB684FF4967202FB03F3694AA2FB0323F5
:1054E0009B0901337A6812680B4313627B681B685F
:1054F000DB6923F44F4222F0FF027B685B685C4962
:105500008B4219D8FB68591E7B685B685B00B1FB56
:10551000F3F3591C40F6FC730B40002B0AD0FB68D8
:10552000591E7B685B685B00B1FBF3F30133C3F387
:105530000B0351E004234FE07B689B68002B11D1E3
:10554000FB68581E7B6859680B465B000B44B0FB38
:10555000F3F30133C3F30B03002B0CBF0123002330
:10556000DBB212E0FB68581E7B6859680B469B0053
:105570000B4499000B44B0FBF3F30133C3F30B036B
:10558000002B0CBF01230023DBB2002B01D0012331
:1055900022E07B689B68002B0ED1FB68581E7B685D
:1055A00059680B465B000B44B0FBF3F30133C3F3C4
:1055B0000B0343F400430FE0FB68581E7B685968F7
:1055C0000B469B000B4499000B44B0FBF3F30133F3
:1055D000C3F30B0343F44043796809681343CB6179
:1055E0007B681B681B6823F0C0017B68DA697B68F5
:1055F0001B6A1A437B681B680A431A607B681B6836
:105600009B6823F4034323F0FF037A6811697A68E7
:10561000D26811437A6812680B4393607B681B68F9
:10562000DB6823F0FF017B685A697B689B691A433A
:105630007B681B680A43DA607B681B681A687B68B2
:105640001B6842F001021A607B6800221A647B68C2
:10565000202283F83D207B6800221A637B680022A9
:1056600083F83E20002318461037BD4680BD00BF9A
:10567000A08601007F841E00FF083D0083DE1B43DF
:10568000D34D621080B588B002AFF8607A601A46D8
:105690000B467B8113463B81FFF73CFB7861FB683F
:1056A00093F83D30DBB2202B40F0E0807B69009323
:1056B000192301227049F86800F092FC0346002B80
:1056C00001D00223D3E0FB6893F83C30012B01D1D9
:1056D0000223CCE0FB68012283F83C20FB681B68B6
:1056E0001B6803F00103012B07D0FB681B681A68D5
:1056F000FB681B6842F001021A60FB681B681A68AD
:10570000FB681B6822F400621A60FB68212283F8A0
:105710003D20FB68102283F83E20FB6800221A64BB
:10572000FB687A685A62FB683A895A85FB685B8D28
:105730009AB2FB681A85FB68504ADA6279897B69FC
:105740003A6AF86800F0FCFA0346002B01D0012306
:105750008DE000233B61FB681B685B693B61FB6874
:105760001B689B693B613B6966E07A69396AF86846
:1057700000F00CFD0346002B0DD0FB681B6C042BC6
:1057800007D1FB681B681A68FB681B6842F400724B
:105790001A6001236BE0FB685B6A1A78FB681B6880
:1057A0001A61FB685B6A5A1CFB685A62FB685B8D76
:1057B0009BB2013B9AB2FB685A85FB681B8D013B8B
:1057C0009AB2FB681A85FB681B685B6903F00403E7
:1057D000042B1BD1FB681B8D002B17D0FB685B6A69
:1057E0001A78FB681B681A61FB685B6A5A1CFB68C5
:1057F0005A62FB685B8D9BB2013B9AB2FB685A858B
:10580000FB681B8D013B9AB2FB681A857A69396A7D
:10581000F86800F0FCFC0346002B0DD0FB681B6C05
:10582000042B07D1FB681B681A68FB681B6842F4ED
:1058300000721A6001231AE0FB681B8D002B94D1C3
:10584000FB681B681A68FB681B6842F400721A60E8
:10585000FB68202283F83D20FB68002283F83E206D
:10586000FB68002283F83C20002300E00223184656
:105870001837BD4680BD00BF020010000000FFFFCA
:1058800080B58CB002AFF8607A601A460B467B8117
:1058900013463B8100233B62FFF73CFA7862FB68CA
:1058A00093F83D30DBB2202B40F03F827B6A0093BF
:1058B000192301227F49F86800F092FB0346002B70
:1058C00001D0022332E2FB6893F83C30012B01D176
:1058D00002232BE2FB68012283F83C20FB681B6853
:1058E0001B6803F00103012B07D0FB681B681A68D3
:1058F000FB681B6842F001021A60FB681B681A68AB
:10590000FB681B6822F400621A60FB68222283F89D
:105910003D20FB68102283F83E20FB6800221A64B9
:10592000FB687A685A62FB683A895A85FB685B8D26
:105930009AB2FB681A85FB685F4ADA6279897B6AEA
:105940003A6BF86800F07EFA0346002B01D0012381
:10595000ECE1FB681B8D002B13D10023FB61FB687E
:105960001B685B69FB61FB681B689B69FB61FB69EA
:10597000FB681B681A68FB681B6842F400721A60B7
:10598000C0E1FB681B8D012B1ED1FB681B681A68E8
:10599000FB681B6822F480621A6072B600BF0023A5
:1059A000BB61FB681B685B69BB61FB681B689B692B
:1059B000BB61BB69FB681B681A68FB681B6842F423
:1059C00000721A6062B635E0FB681B8D022B1ED197
:1059D000FB681B681A68FB681B6842F400621A6067
:1059E00072B600BF00237B61FB681B685B697B614B
:1059F000FB681B689B697B617B69FB681B681A6895
:105A0000FB681B6822F480621A6062B612E0FB68D1
:105A10001B681A68FB681B6842F480621A600023E6
:105A20003B61FB681B685B693B61FB681B689B69AA
:105A30003B613B6966E1FB681B8D032B00F21F8114
:105A4000FB681B8D012B23D17A6A396BF86800F053
:105A50001FFC0346002B01D0012367E1FB681B6894
:105A60001A69FB685B6AD2B21A70FB685B6A5A1CDF
:105A7000FB685A62FB681B8D013B9AB2FB681A8572
:105A8000FB685B8D9BB2013B9AB2FB685A8539E19A
:105A9000FB681B8D022B52D17B6A00933B6B00226B
:105AA0000649F86800F09CFA0346002B08D0012351
:105AB0003CE100BF020010000000FFFF04000100F5
:105AC00072B600BFFB681B681A68FB681B6842F46B
:105AD00000721A60FB681B681A69FB685B6AD2B2C5
